:020000040000FA
:10000000C920B021891C0228E12029213C22452257
:10001000022882077E3430346D34793433345B34D3
:100020001F3470347F347B348207473477341F3475
:1000300030347734153408345B3470344F343E3404
:100040004F34153408346D344F34773408345F340A
:100050007E3415346D3477340E344F346D340834B7
:1000600030346D3479340034003400340034820785
:100070003C3437347E341534773470347734153467
:10008000083405344F343034153477340E343D346D
:100090007E3408345F347E34153415344F346D3477
:1000A000083467344F345B344E34773400340034D2
:1000B0000034003482074F345B344E343E344F34C6
:1000C0000E3477340834303415345F344F341534FB
:1000D00030344F3405343034773408344F340E34F0
:1000E0004F344E34703405347E34153430344E344D
:1000F0007734003400340034003482074E343E3408
:1001000005345B347E3408341534153430344E34C1
:1001100005347E344E347E341534703405347E34E8
:100120000E3477343D347E3405344F345B34083438
:1001300033347B3401347E3400340034003482079D
:10014000673405343034153415344F3405340834ED
:100150005B344F34153415344F345B34703405340C
:100160004F340834773455347E3408346D347E345B
:1001700030347034083477341F344E340034003453
:10018000003400348207773405344F3467345B34ED
:100190004F348316031371308F0083160313FF301F
:1001A0008500880187010E308900831603178801B6
:1001B00083120313850187018801890183120313C8
:1001C0000800BE21B1017A218C219E21870188017E
:1001D00007142B0809208800B9218801870D2A08F7
:1001E00009208800B9218801870D2D080920880081
:1001F000B9218801870D2C0809208800B9218801C0
:10020000870D2F0809208800B9218801870D2E0845
:1002100009208800B921B10A64303106031DE6289F
:10022000200803191529A003E328203084003B305F
:100230008000840A210803191F298003E328213044
:1002400084003B3080002208031928298003E3281A
:100250000800B10187018801B201B101203084009A
:1002600001308000840A003080007A218C218701CF
:10027000880107142B0809208800B9218801870DFF
:100280002A0809208800B9218801870D2D08092036
:100290008800B9218801870D2C0809208800B92120
:1002A0008801870D01308800B9218801870D013050
:1002B0008800B921891C5D297929B10A6430310689
:1002C000031D3729203084003B30B200200603197B
:1002D0006B29A00A3529203084008001840A3B3034
:1002E000B200210603197629800A352921308400BD
:1002F00080010800A701AA01AB012008A700270878
:100300000A30A702031C8629AA0A7F2927080A3077
:10031000A7072708AB000800A801AC01AD01210820
:10032000A80028080A30A802031C9829AC0A9129C1
:1003300028080A30A8072808AD000800A901AE0166
:10034000AF012208A90029080A30A902031CAA2922
:10035000AE0AA32929080A30A9072908AF00080016
:10036000203084008001840A40300406031DB22935
:100370000800C830B400B40BBB2908000519ED29EA
:100380008518D7290518CD29203084003230800007
:10039000840A8001840A8001F629203084000A3012
:1003A0008000840A01308000840A8001F629051843
:1003B000E329203084001E308000840A033080004E
:1003C000840A8001F6292030840011308000840ADC
:1003D00004308000840A8001F629203084008001E6
:1003E000840A05308000840A8001F62908002E2244
:1003F00005190C2A8518042A0518012A3708142023
:100400000E2A370837200E2A0518092A37085A20DD
:100410000E2A37087D200E2A37089F2080002130C1
:1004200037060319152AB70A0800B7010800870123
:1004300007172030840000088800870CB921840A3F
:10044000B50A06303506031D1B2AB501B60A64300D
:100450003606031D172AB6018701080020308400E4
:10046000840A000884038000840AB80A053038062C
:10047000031D302AB8010800B0211722F721B90A5C
:1004800024303906031D3D2A0800BA01870188017E
:1004900007143A08C2208800B9218918572A880110
:1004A000870DBA0A06303A06031D492A452A080074
:0404B00000340034E0
:02400E00F22F8F
:02401000FF3F70
:00000001FF
